:100000000C942A000C9447000C9447000C94470071
:100010000C9447000C9447000C9447000C94470044
:100020000C9447000C9447000C9449000C94470032
:100030000C9447000C9447000C9447000C94470024
:100040000C9447000C9447000C9447000C94470014
:100050000C94470011241FBECFE5D8E0DEBFCDBF12
:1000600010E0A0E6B0E0E6E9F2E002C005900D92F3
:10007000AE36B107D9F710E0AEE6B0E001C01D9290
:10008000A637B107E1F70E940A010C9449010C94CC
:1000900000001F920F920FB60F9211242F933F93DF
:1000A0008F939F9380916E0090916F000196909333
:1000B0006F0080936E0080917000909171000196A6
:1000C000909371008093700085B392E0892785BB7F
:1000D00020916E0030916F008091610090916200DC
:1000E0008217930730F41092600010926F00109204
:1000F0006E009F918F913F912F910F900FBE0F90A7
:100100001F90189584B3836084BB8FEF87BB81B346
:100110008F6081BB08958BE483BF82E089BF8DE748
:100120008CBF08959C0168EE73E00E9435016093D6
:100130007200C90168EE73E00E94350164E670E068
:100140000E94350160937300C90164E670E00E946B
:1001500035016AE070E00E94350160937400C901C6
:100160006AE070E00E943501809375000895DF9386
:10017000CF93CDB7DEB72A970FB6F894DEBF0FBE88
:10018000CDBFDE011196E3E6F0E08AE001900D922A
:100190008150E1F780917200DE011196FD01E80FB8
:1001A000F11D608180917300FD01E80FF11D508108
:1001B00080917400FD01E80FF11DE08180917500D0
:1001C000A80FB11DAC9140E020ED37E068BB909ADC
:1001D000C9010197F1F7909858BB919AC90101970D
:1001E000F1F79198E8BB929AC9010197F1F79298BB
:1001F000A8BB939AC9010197F1F793984F5F4436D2
:1002000029F72A960FB6F894DEBF0FBECDBFCF9167
:10021000DF9108951F9384B3836084BB8FEF87BB06
:1002200081B38F6081BB8BE483BF82E089BF8DE7A0
:100230008CBF11E07894809160008823E1F7F894F6
:1002400085B3812785BB80917000909171000E94D9
:1002500092000E94B70010927100109270001093EB
:10026000600085B3812785BBE5CFAA1BBB1B51E18D
:1002700007C0AA1FBB1FA617B70710F0A61BB70B16
:10028000881F991F5A95A9F780959095BC01CD01BB
:060290000895F894FFCF71
:0E02960001E8033F065B4F666D7D077F6F003A
:00000001FF
